:02000002B0004C
:1040000000400B00C6530B00000006000C00050228
:084010000401D41700000000B8
:04401800B4500B0095
:10401C00034613F8012B002AFBD1181A01387047FC
:10402C0009480A49884208B505D0094A824202D09B
:10403C00121A00F08FFF0748074A0021121A00F0ED
:10404C0097FF014808BD00BF4CE603202C530B0022
:10405C00B8E60320B8E60320FCE7032070B5074E52
:10406C00074C00F055FEA41BA4080025AC4200D15F
:10407C0070BD56F8043B98470135F7E7E4520B0046
:10408C0008530B0000F013B808B500F023F8BDE896
:10409C00084000F0F5BD00F0FFB900F005BA00785B
:1040AC00B0FA80F04009704701230370704708B5DF
:1040BC000121072000F09CFE00F020FF4FF4165168
:1040CC0000F0F6FC00F056FDBDE808404FF4165128
:1040DC0000F044BD08B500F011FF0A4900F013FCD4
:1040EC000121072000F095FE4FF4FA7000F0F4F96E
:1040FC000720002100F08DFEBDE8084040F2DC50A6
:10410C0000F0EAB9C8500B0008B50120002100F0FE
:10411C002FF9064B0022C3E90022A2F580329A60E7
:10412C00BDE80840022000F013B900BFB8E6032038
:10413C0008B5024B1B685B6C019308BD4802030079
:10414C0008B5024B1B685B68019308BD180203009D
:10415C0008B5024B1B685B69019308BD180203008C
:10416C0008B5024B1B689B68019308BD2C02030029
:10417C0008B5024B1B68DB68019308BD2C020300D9
:10418C0008B5024B1B681B69019308BD2C02030088
:10419C0008B5024B1B681B6A019308BD280203007B
:1041AC0008B5024B1B685B6A019308BD280203002B
:1041BC0008B5024B1B689B6A019308BD28020300DB
:1041CC0008B5024B1B68DB6A019308BD280203008B
:1041DC0008B5024B1B681B6B019308BD280203003A
:1041EC0008B5024B1B685B6B019308BD28020300EA
:1041FC0008B5024B1B681B6C019308BD2802030019
:10420C0008B5024B1B685B69019308BD640203008F
:10421C0008B5024B1B689B68019308BD680203003C
:10422C0008B5024B1B68DB68019308BD68020300EC
:10423C0008B5024B1B68DB69019308BD3002030013
:10424C0008B5024B1B681B6A019308BD30020300C2
:10425C0008B5024B1B68DB68019308BD3C020300E8
:10426C0008B5024B1B681B69019308BD3C02030097
:10427C0008B5024B1B685B69019308BD3C02030047
:10428C0008B5024B1B689B69019308BD3C020300F7
:10429C0008B5024B1B68DB69019308BD3C020300A7
:1042AC0008B5024B1B681B6A019308BD3C02030056
:1042BC0008B5024B1B689B6A019308BD3C020300C6
:1042CC0008B5024B1B68DB6A019308BD3C02030076
:1042DC0008B5024B1B681B6C019308BD3C02030024
:1042EC0008B5024B1B681B68019308BD4C02030008
:1042FC0008B5024B1B685B68019308BD4C020300B8
:10430C0008B5024B1B681B69019308BD4C020300E6
:10431C0008B5024B1B685B69019308BD4C02030096
:10432C0008B5024B1B689B69019308BD4C02030046
:10433C0008B5024B1B68DB69019308BD4C020300F6
:10434C0008B5024B1B681B6A019308BD4C020300A5
:10435C0008B5024B1B685B68019308BD2002030083
:10436C0008B5024B1B685B69019308BD2002030072
:10437C0008B5024B1B68DB6A019308BD20020300E1
:10438C0008B5034B1B68D3F88830019308BD0000B7
:10439C002002030008B5034B1B68D3F8943001933B
:1043AC0008BD00002002030008B5024B1B68DB6B44
:1043BC00019308BD4402030008B5024B1B685B68FF
:1043CC00019308BD4002030008B5024B1B689B68B3
:1043DC00019308BD4002030008B5024B1B68DB6863
:1043EC00019308BD4002030008B5024B1B681B6912
:1043FC00019308BD4002030008B5024B1B685B69C2
:10440C00019308BD4002030008B5024B1B689B6971
:10441C00019308BD4002030008B5024B1B68DB6921
:10442C00019308BD4002030008B5024B1B681B6AD0
:10443C00019308BD4002030008B5024B1B681B6BBF
:10444C00019308BD4002030008B5024B1B685B6B6F
:10445C00019308BD4002030008B5024B1B681B6C9E
:10446C00019308BD4002030008B5024B1B685B6C4E
:10447C00019308BD4002030008B5024B1B685B6D3D
:10448C00019308BD4002030008B5024B1B689B6DED
:10449C00019308BD4002030008B5024B1B681B6862
:1044AC00019308BD1C02030008B5024B1B685B6836
:1044BC00019308BD1C02030008B5024B1B681B6C62
:1044CC00019308BD1C02030008B5024B1B685B6C12
:1044DC00019308BD1C0203000021FFF741BF00003F
:1044EC00024800230360FFF723BE00BFC4E603208D
:1044FC00002240681146FFF797BF00224068114622
:10450C00FFF7A2BF40680022FFF796BF4068002269
:10451C0081F00101FFF780BF002340681A4619465D
:10452C00FFF772BF002340681A461946FFF764BFB5
:10453C00002240681146FFF757BF00224068114621
:10454C00FFF742BF406800220221FFF745BF00235E
:10455C0040681A46FFF730BF024B03225A60024AEA
:10456C001A607047C8E60320D8500B007047F8B5A6
:10457C00064615460C468F18BC4206D0336814F814
:10458C00011B9B6830469847F6E72846F8BD007C2F
:10459C000022FFF7FDBD007C0021FFF701BE007C6F
:1045AC000021FFF705BE007C0021FFF709BE007C4F
:1045BC000021FFF70DBE10B514210446FFF76DFD69
:1045CC00204610BD38B5044615464FF47A730022C8
:1045DC00C4E90123094B2174084623602946FFF7DF
:1045EC0007FEBF3008D16B69DB0705D56868FFF79C
:1045FC005BFFE868FFF758FF204638BD1C510B00E5
:10460C00704710B518210446FFF747FD204610BD32
:10461C00F0B5037D062B8DB00E4600F104074FF06C
:10462C00000412D000F1080515F8011D0A223046CD
:10463C0000F073F9AF42044419D0002CF4D02E21B1
:10464C00304600F051F90444EEE72F236A46394610
:10465C000A208DF80040FFF7D3FD6846FFF7D8FC21
:10466C0033680246DB686946304698470446204664
:10467C000DB0F0BD10B5054B0446112240F8043BBB
:10468C00002100F075FC204610BD00BF48510B0006
:10469C000346074A10B543F8042B01F1100251F8F8
:1046AC00044B43F8044B9142F9D10A781A7010BDAF
:1046BC0048510B0010B59DF8084044EA032343EA27
:1046CC00024242EA016104234160037510BD0000FF
:1046DC0007B5064B0360CB7800938B784A78097842
:1046EC00FFF7E8FF03B05DF804FB00BF48510B0077
:1046FC00014B024A1A607047D0E6032054510B005C
:10470C00002340681A46FFF757BE4068002202217A
:10471C00FFF762BE002240681146FFF755BE00222B
:10472C0040681146FFF760BE002340681A461946E0
:10473C00FFF762BE002340681A461946FFF764BEB5
:10474C0040680021FFF788BE40680021FFF78CBE4F
:10475C004068002281F00101FFF75EBE4068002234
:10476C00FFF76ABE002240681146FFF76DBE0022BB
:10477C0040681146FFF758BE40680021FFF784BE21
:10478C002DE9F04395B014460D460746FFF772FF2E
:10479C0000211C220DA8009100F0EAFB40230C9391
:1047AC0020466B460CAA0021FFF73AFD0446002870
:1047BC004BD1024601216868FFF716FE02218046A4
:1047CC0022466868FFF710FE009E81462146002EA7
:1047DC003BD0002939D17368022B03D00A2B11D09E
:1047EC00F669F4E7B8F1000FFAD0716906A8043144
:1047FC0007ADFFF76DFF0FCD3C1D0FC42B68237069
:10480C004146EDE7B9F1000FEAD07469102201A816
:10481C0000F0AEFB06238DF8143001AD04F1080353
:10482C001834186859682A4603C20833A34215463F
:10483C00F7D101A906A807ADFFF72AFF0FCD3C1D44
:10484C000FC42B6823704946CAE70098FFF7E0FCB9
:10485C00384615B0BDE8F083033802289ABF024BE6
:10486C0053F820000148704758510B00D4E6032040
:10487C0008B500224068FFF7FFFDBDE80840FFF7D0
:10488C00EBBF0000024B034A1A6000225A607047CB
:10489C00D4E603206C510B00F8B506460D468F1874
:1048AC000024BD420CD0336815F8011B9B683046C0
:1048BC009847031E01DB1C44F3E7002C08BF1C4681
:1048CC002046F8BD13B50446084659B10191FFF7CF
:1048DC009FFB23680199DB680246204602B0BDE8C5
:1048EC001040184702B010BD03689B68184738B5D4
:1048FC000D210546FFF7F8FF0A2104462846FFF76D
:10490C00F3FF204438BD38B50546FFF7DBFF0446FE
:10491C002846FFF7ECFF204438BD30B58BB00023A0
:10492C00012A8DF8243098BF0A2209AC0D46B1FB40
:10493C00F2F101FB125303F0FF03092B94BF303348
:10494C003733DBB2AA4204F8013DEFD92146FFF719
:10495C00B9FF0BB030BD0000014B00229A607047CC
:10496C00DCE6032010B5044608462170FFF760FC16
:10497C0000236360204610BD10B50446FFF7E8FB2A
:10498C00E060236820465B699847002808DAFFF747
:10499C00DFFBE368C01AA3689842F2D34FF0FF30F4
:1049AC0010BD2DE9F04107460C468E180D46B54258
:1049BC00A5EB040807D03846FFF7DEFF031E02DB29
:1049CC0005F8013BF3E74046BDE8F081054B0222B8
:1049DC001A60054B054A9A600020C3E90000FFF7F6
:1049EC00B7BC00BFF8E60320ECE603200000FFFF95
:1049FC00024B1A68024B1A60704700BF4CE603204A
:104A0C00FCE6032070474174704708B5007CFFF743
:104A1C004FFC20EAE07008BD08B5007CFFF720FCD5
:104A2C0020EAE07008BD08B5007CFFF729FC40EADD
:104A3C00E07008BD08B5007CFFF71AFC40EAE07096
:104A4C0008BD007CFFF724BC37B5457C04462DB16E
:104A5C00207C03B0BDE83040FFF7FABB007C01912D
:104A6C00FFF726FC00280199F2DC284603B030BD84
:104A7C0010B514210446FFF710FB204610BD0000B2
:104A8C0010B54FF47A730446084611460022C4E967
:104A9C000123044B2360012320746374FFF718FC7B
:104AAC00204610BDCC510B00007C0023FFF708BC46
:104ABC000022FFF7F9BF417470477047704708B583
:104ACC000021007CFFF72CFC40EAE07008BD08B523
:104ADC000121007CFFF724FC40EAE07008BD08B51A
:104AEC00007CFFF715FC20EAE07008BD08B5007CDF
:104AFC00FFF706FC20EAE07008BD13B50446007C05
:104B0C000191FFF705FC0028019901DC607C20B1C4
:104B1C00207CFFF70DFC20EAE07002B010BD007C99
:104B2C00FFF70EBC10B514210446FFF7B6FA204669
:104B3C0010BD000010B54FF47A73044608460021EE
:104B4C00C4E90113044B23600123207463741146E0
:104B5C00FFF7C6FB204610BD00520B00007C002264
:104B6C00FFF7C6BB10B514220446002100F000FA72
:104B7C00204610BD10B50F4C88B003A8FFF7F2FF0C
:104B8C002178BFF35B8F11F001010FD12046019109
:104B9C00FFF785FA019948B103AA0748FFF7CAFF46
:104BAC002046FFF781FA054800F0CEF9024808B01C
:104BBC0010BD00BF00E7032004E70320C74A0B0029
:104BCC00002240681146FFF70FBC002240681146D6
:104BDC00FFF72ABC002240681146FFF735BC40683D
:104BEC000022FFF729BC4068002281F00101FFF789
:104BFC0013BC002340681A461946FFF705BC002376
:104C0C0040681A461946FFF7F7BB00224068114668
:104C1C00FFF7DABB406800220221FFF7DDBB00235F
:104C2C0040681A46FFF7C8BB024B04225A60024A7E
:104C3C001A60704718E7032034520B00014B1860C0
:104C4C00704700BF50E6032008B50B4B43B1FFF78C
:104C5C0091FF03681B699847002801DDAFF30080C2
:104C6C00064B43B100F04AF903681B6998470028CA
:104C7C0001DDAFF3008008BD000000000000000063
:104C8C0008B5FFF7E1FFFFF763FA014B186008BDA9
:104C9C0034E703200548064A064908B5121A00F005
:104CAC0059F9054B054A1A6008BD00BF00F40320F2
:104CBC0004F4032098530B0000F403201E1C279AC5
:104CCC0007B5002300931A466FF07701FFF762FBDC
:104CDC0003B05DF804FB000007B543880A2B08D02D
:104CEC00502B0BD1094B1B684BB103B05DF804EB97
:104CFC001847FFF7E5FF03B05DF804FB00230093B2
:104D0C001A466FF07701FFF745FBF4E724E7032021
:104D1C0010B512480021FFF7D7FB114B1A68114B45
:104D2C009A42114B0CBF012200221A7001D0FFF7DE
:104D3C00B1FFFFF705FA044600F022F90B4B13B153
:104D4C002046AFF3008000210848FFF72DFBBDE89B
:104D5C00104007480021FFF713BB00BF494C0B0064
:104D6C0000F403201E1C279A20E7032000000000FB
:104D7C00E54C0B00232813B502D9002002B010BD5E
:104D8C00A0F10B03022B1AD8174C2178BFF35B8FC1
:104D9C0011F001010BD120460191FFF780F9019927
:104DAC0028B11248FFF7DEFD2046FFF77DF90F4BC7
:104DBC001878FFF745FA0028DFD10120DEE701283B
:104DCC0009D800F05BF80021007CFFF709FA80F0AD
:104DDC000100C0B2D2E709380128EED800F08EF8F5
:104DEC00007CFFF75DFAF2E728E703202CE70320AD
:104DFC00232838B504460D460AD8FF2908D0FFF7FA
:104E0C00B9FF28B129462046BDE83840FFF7A8B9BC
:104E1C0038BD38B504460D46FFF7AAF9FF2810D067
:104E2C00062804D84D2323FA00F0C30709D42046E2
:104E3C00FFF7A0FF28B129462046BDE83840FFF710
:104E4C009FB938BD7047000038B50A4B0360012389
:104E5C00044643610849202000F074F82025606066
:104E6C000549A560284600F06DF8C4E90305204605
:104E7C0038BD00BF1800010070520B0030B50E4D4C
:104E8C002978BFF35B8F11F0010487B011D128464C
:104E9C00FFF705F968B16846FFF7D6FF6A46214669
:104EAC000648FFF78FFB2846FFF7FEF8044800F092
:104EBC004BF8024807B030BD38E703203CE703202D
:104ECC00514E0B007047000038B5044614252A4695
:104EDC00002100F04DF82580402507492581284602
:104EEC00258200F02FF804496060284600F02AF86B
:104EFC00E060204638BD00BF70520B0030B50E4D3F
:104F0C002978BFF35B8F11F0010487B011D12846CB
:104F1C00FFF7C5F868B101A8FFF7D6FF01AA214633
:104F2C000648FFF7ADFD2846FFF7BEF8044800F031
:104F3C000BF8024807B030BD50E7032054E70320BC
:104F4C00D14E0B00FFF7A7B8002301461A461846AE
:104F5C0000F044B80A44914200F1FF3300D170478D
:104F6C0010B511F8014B03F8014F9142F9D110BD66
:104F7C0002440346934200D1704703F8011BF9E742
:104F8C0038B5104B1D68AB6B0446B3B91820FFF74E
:104F9C0083FA0246A86320B90B4B0C484221FFF759
:104FAC008BFA0B490B4BC0E900130B4B83600B23A3
:104FBC00838100210120C2E90401AB6B00221C613A
:104FCC005A6138BD50E6032071520B0088520B0019
:104FDC000E33CDAB34126DE6ECDE05002DE9F84353
:104FEC00DFF8B8800646D8F800001F460D469146FB
:104FFC0000F056F8254B1C6834B9254C1C60254B29
:10500C0013B11B68C4F8883063681F2B07DDD8F810
:10501C00000000F047F84FF0FF30BDE8F8834EB3C6
:10502C00D4F8880088B91C4B23B9D8F8000000F0DC
:10503C0038F8F0E74FF48470FFF72EFA0028F4D01C
:10504C000023C0E94033C4F88800636840F823901B
:10505C0001229A4000EB8301D0F800311343C0F8D1
:10506C000031022EC1F8807002BFD0F80431134316
:10507C00C0F804316368D8F800005A1C023362602F
:10508C0044F8235000F00EF80020C6E7F4E70320A4
:10509C0068E7032000000000A5440B00B4E60320E1
:1050AC0070477047704700002D400B0069400B00A3
:1050BC0091400B0095400B000000000048656C6CA3
:1050CC006F00000000000000000000005B450B00BA
:1050DC0051450B0047450B003D450B0031450B007E
:1050EC0025450B004D470B0055470B0019450B0090
:1050FC0011450B0007450B00FD440B007D480B00D0
:10510C0085470B008D470B000000000000000000DD
:10511C0079450B00C3450B009B450B007B450B00F1
:10512C00A3450B00AB450B00B3450B00BB450B0077
:10513C00AF490B0000000000000000001D460B00F2
:10514C000D460B000F460B0061707000C8E6032083
:10515C0018E70320D4E60320000000000000000044
:10516C000D470B0017470B0021470B002B470B007B
:10517C0035470B0041470B004D470B0055470B00C3
:10518C005D470B0069470B0071470B007B470B0019
:10519C007D480B0085470B008D470B0025592D25AD
:1051AC006D2D25645425483A254D3A2553257A0012
:1051BC0061736374696D65000000000000000000FD
:1051CC00114A0B007D4A0B00554A0B00A5480B00F9
:1051DC00254A0B00414A0B00334A0B004F4A0B0087
:1051EC00AF490B00134A0B00174A0B0000000000DC
:1051FC0000000000C94A0B00314B0B00074B0B00A1
:10520C00A5480B00F94A0B00CB4A0B00DB4A0B00FC
:10521C002B4B0B00AF490B00EB4A0B00C34A0B00A6
:10522C0000000000000000002B4C0B00214C0B0078
:10523C00174C0B00CD4B0B000B4C0B00FF4B0B001A
:10524C004D470B0055470B00F34B0B00EB4B0B0082
:10525C00E14B0B00D74B0B007D480B0085470B0037
:10526C008D470B00005245454E54206D616C6C6FA0
:10527C006320737563636565646564002F746D707A
:10528C002F6A656E6B696E732D4743432D31302D3C
:10529C00706970656C696E652D34385F32303230F0
:1052AC00313132345F313630363138303633392F94
:1052BC007372632F6E65776C69622F6E65776C699C
:1052CC00622F6C6962632F7374646C69622F7261F4
:1052DC006E642E630000000015410B00ED440B00C2
:1052EC0065450B00FD460B0091480B0065490B0012
:0C52FC00D9490B00FD490B00354C0B009C
:10530800040000001400000003000000474E550090
:10531800369FA926441ADAB7E126147F61D8A47EFD
:04532800644486CC87
:10532C00BC510B0054E603200000000000000000FC
:10533C000000000000000000000000000000000061
:10534C000000000000000000000000000000000051
:10535C000000000000000000000000000000000041
:10536C000000000000000000000000000000000031
:10537C000000000000000000000000000000000021
:0C538C000000000000000000F8E7032013
:045398000000000011
:1053A20000000102030405060708090A0B0C0D0E92
:1053B2000F101112131415161718191A1B1C1D1E83
:0453C2001F20280080
:0453C60078563412CF
:04000003B000401CED
:00000001FF
